:040000008A11FB2F37
:100E98000430831203179E009F01831603138501F4
:100EA800860187010612861206138613831203131E
:100EB8001F08C33908389F001F13831603131F0820
:100EC8008F3910389F00831203139F171F140612BF
:100ED800861206138613DD2F7108803AFF008030D2
:100EE8007F02031D792FCD307002031C8A2F7108F1
:100EF800803AFF0081307F02031D842F99307002F1
:100F080003188A2F8312031306166C2F7108803A70
:100F1800FF0081307F02031D932F99307002031C5C
:100F2800A52F7108803AFF0082307F02031D9E2F93
:100F3800663070020318A52F83120313061686164F
:100F48006D2F7108803AFF0082307F02031DAE2F9B
:100F580066307002031CC12F7108803AFF0083308D
:100F68007F02031DB92F323070020318C12F83127C
:100F780003130616861606176E2F7108803AFF00AF
:100F880083307F02031DCA2F32307002031CF82FF2
:100F98007108803AFF0084307F02031DD52F00308E
:100FA80070020318F82F8312031306168616061705
:100FB8008617DE2FDF2F0000831203139F149F185C
:100FC800E32F1E08F100831603131E08F000F11B1F
:100FD800702F7108803AFF0080307F02031DF62FC2
:100FE800CD3070020318702F831203136B2FF0019A
:080FF800F10183018A114C2F65
:02400E00F4F0CC
:00000001FF
